:060000000A128A110C280F
:10000800FE00030EF2000A08F3000A128A110629FC
:100018000A128A110F280A128A11B6210A128A11A5
:10002800F900A401A501F501F601F701F801830122
:100038000A128A11922983120313A2002F281F176C
:100048009F1388281F139F1788281F179F17882812
:100058001F139F1388282208A000A1012108003A35
:10006800031937282C282008013A03192328033AB2
:1000780003192628013A031929282C281F119F1132
:100088001F129F12B9281F159F111F129F12B928FE
:100098001F119F151F129F12B9281F159F151F1298
:1000A8009F12B9281F119F111F169F12B9281F15DB
:1000B8009F111F169F12B9281F119F151F169F12F7
:1000C800B9281F159F151F169F12B9281F119F11B8
:1000D8001F129F16B9281F159F111F129F16B928A6
:1000E8001F119F151F129F16B9281F159F151F1244
:1000F8009F16B9281F119F111F169F16B9281F1583
:100108009F111F169F16B9287408A000A101210885
:10011800003A0319902842282008013A0319472871
:10012800033A03194C28013A03195128073A0319CD
:100138005628013A03195B28033A03196028013A43
:10014800031965280F3A03196A28013A03196F2819
:10015800033A03197428013A03197928073A03194D
:100168007E28013A0319832842289F101F148316FA
:1001780003139F01080083160317880189010330C0
:1001880088008316031305148514860188018901E4
:1001980083120313850186018701880189010B11E8
:1001A8000B108B170B178B168B110C138C118316D6
:1001B80003138C1585160F168F160F17143083121C
:1001C8000313A3002308F40014300A128A111F2015
:1001D8000A128A11831603139F01D830831203135E
:1001E800810057308316031381000C178312031301
:1001F800A001A101A20124300A128A1174210A1255
:100208008A1108000B1D09290A2913290B11D83056
:100218008312031381000130F1007108F80783127B
:1002280003130C1F182919291E290C131E08F10085
:100238007108F7008C1D212922293B290A128A11ED
:10024800A0210A128A1176080A128A11B0210A120C
:100258008A110A128A11A0210A128A1175080A1233
:100268008A11B0210A128A11831203138C117308A0
:100278008A00720E8300FE0E7E0E09000630780298
:10028800031C472948297329F801831203139F1473
:100298007908031D5029512964291430A300230823
:1002A800F40001300A128A111F200A128A117708F5
:1002B80083120313A3002308F600F901F90A73292E
:1002C800F401F40A01300A128A111F200A128A1155
:1002D800770883120313A3002308F500F901080027
:1002E800F400831603138712741D7B297C29842943
:1002F80083120313220883160313940087158C298D
:100308008312031320082204831603139400871111
:100318007408831203132104940008000A128A1136
:10032800BF200A128A110A128A1142210A128A115E
:1003380097290A128A110C280A128A11A9210A126D
:100348008A11831203131308080083160313141C5D
:10035800AE29AF29A9290800F000700883120313F9
:06036800930008000134BF
:04400E00D420FF3F7C
:00000001FF
