:060000000A128A110C280F
:10000800FE00030EF2000A08F3000A128A115D2CA2
:100018000A128A110F28F601F701F801F901831372
:10002800393084004E300A128A11D8240A128A11F3
:1000380083010A128A11962A0130F0007008F80725
:100048007803031D282829282D28503083120313EC
:10005800990002307806031D3228332837284F309C
:1000680083120313990003307806031D3C283D28AA
:100078004128543083120313990004307806031D75
:10008800462847284B28313083120313990005303E
:100098007806031D5028512855283A308312031337
:1000A800990006307806031D5A285B285F282030FF
:1000B80083120313990007307806031D6428652806
:1000C8006928831203134108990008307806031D34
:1000D8006E286F2873282E30831203139900093075
:1000E8007806031D782879287D28831203133E0893
:1000F80099000A307806031D8228832887288312EE
:1001080003133B0899000B307806031D8C288D28B3
:10011800912876308312031399000C307806031D5A
:10012800962897289B282C308312031399000D30AA
:100138007806031DA028A128A528203083120313C0
:1001480099000E307806031DAA28AB28AF28503036
:100158008312031399000F307806031DB428B528BD
:10016800B9284F3083120313990010307806031D05
:10017800BE28BF28C32854308312031399001130B6
:100188007806031DC828C928CD28323083120313E6
:10019800990012307806031DD228D328D7283A3080
:1001A80083120313990013307806031DDC28DD2819
:1001B800E128831203134008990014307806031DC0
:1001C800E628E728EB282E30831203139900153010
:1001D8007806031DF028F128F528831203133D083B
:1001E800990016307806031DFA28FB28FF28831289
:1001F80003133A08990017307806031D04290529C6
:100208000929763083120313990018307806031DE4
:100218000E290F2914290D30831203139900F801B0
:100228000800333083120313A4000030A5004D08E2
:10023800AD00AE012D08A6002E08A7000A128A11EB
:1002480018230A128A11831203132408AF002F08F7
:10025800C9003330A4000030A5004D08AD00AE0140
:100268002D08A0002E08A1006430A2000030A300D1
:100278000A128A1136240A128A11831203132108DA
:10028800A7002008A6000A128A1118230A128A1148
:10029800831203132408AF002508B0004908B100F1
:1002A800B2013108A0003208A1009C30A200FF3042
:1002B800A3000A128A1136240A128A118312031320
:1002C80020082F07B50021080318210A3007B600B7
:1002D8000A30A4000030A5003608A7003508A6009B
:1002E8000A128A1118230A128A1183120313240886
:1002F800AD002D08C6003330A4000030A5004D081D
:10030800AD00AE012D08A0002E08A1006430A200A7
:100318000030A3000A128A1136240A128A118312A5
:1003280003132108A7002008A6000A128A1118231F
:100338000A128A11831203132408AF002508B0009B
:100348009C30B1003108F40049080A128A11A2242D
:100358000A128A1183120313B200F630B30033086D
:10036800F40046080A128A11A2240A128A1183127A
:10037800031332072F07B4003408C30049080A12D0
:100388008A1181230A128A1183120313AD002D08E2
:10039800C00046080A128A1181230A128A118312A0
:1003A8000313AD002D08BD0043080A128A118123EA
:1003B8000A128A1183120313AD002D08BA0008002F
:1003C800333083120313A4000030A5007908AD0070
:1003D800AE012D08A6002E08A7000A128A111823BC
:1003E8000A128A11831203132408AF002F08F6009B
:1003F8003330A4000030A5007908AD00AE012D0807
:10040800A0002E08A1000A30A2000030A3000A12A2
:100418008A1136240A128A11831203132108A700AD
:100428002008A6000A128A1118230A128A118312B8
:1004380003132408AF002508B000F630B1003108D6
:10044800F40076080A128A11A2240A128A11831269
:1004580003132F07B2003208C7003330A40000305E
:10046800A5007908AD00AE012D08A0002E08A10056
:100478006430A2000030A3000A128A1136240A123E
:100488008A11831203132108A7002008A6000A1264
:100498008A1118230A128A11831203132408AF0041
:1004A8002508B0009C30B1003108F40076080A1223
:1004B8008A11A2240A128A1183120313B200F63099
:1004C800B3003308F40047080A128A11A2240A125A
:1004D8008A118312031332072F07B4003408C400AB
:1004E80076080A128A1181230A128A1183120313C9
:1004F800AD002D08C10047080A128A1181230A128B
:100508008A1183120313AD002D08BE0044080A1295
:100518008A1181230A128A1183120313AD002D0850
:10052800BB0008000A128A11C2230A128A11831218
:1005380003130711033083120313B8009730B70071
:10054800B70BA42AB80BA42A00300A128A11E72490
:100558000A128A110A128A11CF240A128A118312E6
:100568000313B7003708F900033083120313B800E8
:100578009730B700B70BBE2AB80BBE2A83120313F5
:1005880007150711033083120313B8009730B7001B
:10059800B70BCC2AB80BCC2A00300A128A11E724F0
:1005A8000A128A110A128A11CF240A128A11831296
:1005B8000313B7003708CD00033083120313B800C4
:1005C8009730B700B70BE62AB80BE62A8312031355
:1005D80007150D3077060319F22AF32A012B2B3061
:1005E80077060319F82AF92A012B2D307706031903
:1005F800FE2AFF2A012BCC01CB010A128A11FF2304
:100608000A128A110A128A11E4210A128A110A129C
:100618008A1115210A128A11790883120313860098
:100628009B2A0A128A110C2883120313AA01A51FF8
:100638001E2B1F2B262BA409A509A40A0319A50AFA
:10064800AA01AA0AA71F292B2A2B332BA609A70917
:10065800A60A0319A70A0130A8002808AA06AB01B0
:10066800AC012408250403193A2B3B2B722BA90152
:10067800A90A492B01300310A40DA50DFF3E031D47
:100688003F2B0130A8002808A907A51F4C2B4D2B8C
:100698003E2B01300310AB0DAC0DFF3E031D4E2B5E
:1006A80025082702031D5A2B24082602031C5D2B4C
:1006B8005E2B652B2408A6022508031CA703A702A6
:1006C8002B1401300310A50CA40CFF3E031D662B50
:1006D8000130A902031D712B722B4D2B2A08031917
:1006E800762B772B7C2BAB09AC09AB0A0319AC0A28
:1006F8002C08A5002B08A400080083120313A000EF
:10070800992B3030C12B3130C12B3230C12B3330D3
:10071800C12B3430C12B3530C12B3630C12B37308B
:10072800C12B3830C12B3930C12B2008F400F5011A
:100738007508003A0319A12B852B7408003A031990
:10074800852B013A0319872B033A0319892B013AA0
:1007580003198B2B073A03198D2B013A03198F2B99
:10076800033A0319912B013A0319932B0F3A0319F2
:10077800952B013A0319972B852B0800831603172D
:100788008801890183160313850186010711071360
:1007980087178801890183120313850186010430B4
:1007A8008700880189010B110B108B170B178B160B
:1007B8008B110C13831603130F168F160F179F0137
:1007C800D830831203138100573083160313810036
:1007D8008C160C160A128A11B9240A128A1183126D
:1007E8000313A001A101A20120300A128A11842456
:1007F8000A128A1108002B307706031D042C052CD9
:10080800092C83120313CC01CC0A0D307706031D83
:100818000E2C0F2C1B2C831203134C03031D152CB9
:10082800162C1B2CCC010130F400740888072D30DD
:100838007706031D202C212C252C83120313CB01B2
:10084800CB0A0D307706031D2A2C2B2C352C83124E
:1008580003134B03031D312C322C352CCB010130F3
:1008680088020800F401F50183120313201C3D2CB3
:100878003E2C442C2208F4070318F50A2308F50730
:1008880001300310A20DA30DFF3E031D452C0130BE
:100898000310A10CA00CFF3E031D4C2C20082104C2
:1008A800031D572C582C382C7508A1007408A0007B
:1008B80008000B1D602C612C662C0B11D83083129C
:1008C80003138100831203130C1E6B2C6C2C742CE5
:1008D8000A128A1120200A128A11831603130C1295
:1008E80083128C1E782C792C7D2C1A08F100710843
:1008F800F70073088A00720E8300FE0E7E0E090050
:10090800F400831603138712741D8B2C8C2C942CE3
:1009180083120313220883160313940087159C2C53
:1009280083120313200822048316031394008711EB
:10093800740883120313210494000800831203131C
:10094800A100A001211CA92CAA2CAE2C7408F5002A
:100958007508A0070310F40D0310A10C2108031D4E
:10096800B62CB72CA62C20080800831603131812DF
:1009780018151813831603178711831603139A0182
:100988003330990083120313981718131816831617
:100998000313981608000A128A11E0240A128A1111
:1009A800831203131308080064008001840A0406F4
:1009B800031900340406D92C83160313141CE52CE0
:1009C800E62CE02C0800F40074088312031393004B
:0209D800080015
:04400E00D420FF3F7C
:00000001FF
