:060000000A128A110C280F
:10000800FE00030EF2000A08F3000A128A11B12A50
:100018000A128A110F28F601F701F801F901831372
:10002800373084004C300A128A112C230A128A11A4
:1000380083010A128A113B29333083120313A40067
:100048000030A5007908AD00AE012D08A6002E08E5
:10005800A7000A128A11D2200A128A1183120313E6
:100068002408AF002F08F6003330A4000030A500A4
:100078007908AD00AE012D08A0002E08A1000A30B5
:10008800A2000030A3000A128A118A220A128A11D9
:10009800831203132108A7002008A6000A128A1158
:1000A800D2200A128A11831203132408AF002508EC
:1000B800B000F630B1003108F40076080A128A114F
:1000C800F6220A128A11831203132F07B20032088C
:1000D800C5003330A4000030A5007908AD00AE019A
:1000E8002D08A0002E08A1006430A2000030A30053
:1000F8000A128A118A220A128A118312031321080A
:10010800A7002008A6000A128A11D2200A128A1112
:10011800831203132408AF002508B0009C30B100F7
:100128003108F40076080A128A11F6220A128A1196
:1001380083120313B200F630B3003308F400450805
:100148000A128A11F6220A128A118312031332073D
:100158002F07B4003408C20076080A128A11D52184
:100168000A128A1183120313AD002D08BF00450837
:100178000A128A11D5210A128A1183120313AD00BB
:100188002D08BC0042080A128A11D5210A128A11C8
:1001980083120313AD002D08B9000800831203135E
:1001A800AA01A51FD828D928E028A409A509A40AC6
:1001B8000319A50AAA01AA0AA71FE328E428ED281B
:1001C800A609A709A60A0319A70A0130A800280842
:1001D800AA06AB01AC01240825040319F428F52864
:1001E8002C29A901A90A032901300310A40DA50D82
:1001F800FF3E031DF9280130A8002808A907A51FFC
:1002080006290729F82801300310AB0DAC0DFF3E75
:10021800031D082925082702031D1429240826027E
:10022800031C172918291F292408A6022508031CBE
:10023800A703A7022B1401300310A50CA40CFF3E42
:10024800031D20290130A902031D2B292C29072968
:100258002A080319302931293629AB09AC09AB0A18
:100268000319AC0A2C08A5002B08A40008000A12E0
:100278008A1116220A128A118312031307110330F6
:1002880083120313B6009730B500B50B4929B60B96
:10029800492900300A128A113B230A128A110A12CC
:1002A8008A1123230A128A1183120313B500350811
:1002B800F900033083120313B6009730B500B50B6D
:1002C8006329B60B63298312031307150D307706CC
:1002D80003196F2970297E292B3077060319752990
:1002E80076297E292D30770603197B297C297E29DA
:1002F800CA01C9010A128A1153220A128A110A1262
:100308008A1120200A128A117908831203138600A1
:1003180040290A128A110C280130F0007008F807E9
:100328007803031D982999299E29831203133F08EE
:100338009900051402307806031DA329A429A929C8
:100348002E30831203139900851403307806031D99
:10035800AE29AF29B429831203133C089900051567
:1003680004307806031DB929BA29BF29831203135B
:1003780039089900851505307806031DC429C52953
:10038800C929763083120313990006307806031DB5
:10039800CE29CF29D4290D30831203139900F801EF
:1003A800080083120313A000ED293030152A3130DC
:1003B800152A3230152A3330152A3430152A3530AB
:1003C800152A3630152A3730152A3830152A39308B
:1003D800152A2008F400F5017508003A0319F529D3
:1003E800D9297408003A0319D929013A0319DB29D4
:1003F800033A0319DD29013A0319DF29073A0319DA
:10040800E129013A0319E329033A0319E529013AD5
:100418000319E7290F3A0319E929013A0319EB29C6
:10042800D929080083160317880189018316031345
:10043800850186010711071387178801890183122F
:1004480003138501860104308700880189010B1197
:100458000B108B170B178B168B110C1383160313AA
:100468000F168F160F179F01D830831203138100C0
:1004780057308316031381008C160C160A128A1142
:100488000D230A128A1183120313A001A101A201EC
:1004980020300A128A11D8220A128A1108002B3039
:1004A8007706031D582A592A5D2A83120313CA01A5
:1004B800CA0A0D307706031D622A632A6F2A83123F
:1004C80003134A03031D692A6A2A6F2ACA010130E5
:1004D800F400740888072D307706031D742A752ADE
:1004E800792A83120313C901C90A0D307706031D3F
:1004F8007E2A7F2A892A831203134903031D852A2A
:10050800862A892AC901013088020800F401F50108
:1005180083120313201C912A922A982A2208F4078E
:100528000318F50A2308F50701300310A20DA30DDF
:10053800FF3E031D992A01300310A10CA00CFF3EB9
:10054800031DA02A20082104031DAB2AAC2A8C2AEB
:100558007508A1007408A00008000B1DB42AB52A6C
:10056800BA2A0B11D83083120313810083120313A4
:100578000C1EBF2AC02AC82A0A128A1190210A1200
:100588008A11831603130C1283128C1ECC2ACD2ACF
:10059800D12A1A08F1007108F70073088A00720E50
:1005A8008300FE0E7E0E0900F400831603138712E3
:1005B800741DDF2AE02AE82A83120313220883160F
:1005C800031394008715F02A8312031320082204CA
:1005D80083160313940087117408831203132104EC
:1005E8009400080083120313A100A001211CFD2A16
:1005F800FE2A022B7408F5007508A0070310F40DF5
:100608000310A10C2108031D0A2B0B2BFA2A200822
:1006180008008316031318121815181383160317E6
:100628008711831603139A01333099008312031339
:1006380098171813181683160313981608000A1229
:100648008A1134230A128A1183120313130808002B
:1006580064008001840A04060319003404062D2B63
:1006680083160313141C392B3A2B342B0800F4007F
:0A06780074088312031393000800B6
:04400E00D420FF3F7C
:00000001FF
