:060000000A128A110C280F
:10000800FE00030EF2000A08F3000A128A11592CA6
:100018000A128A110F28F601F701F801F901831372
:10002800393084004E300A128A11D4240A128A11F7
:1000380083010A128A11962A0130F0007008F80725
:100048007803031D282829282D28503083120313EC
:10005800990002307806031D3228332837284F309C
:1000680083120313990003307806031D3C283D28AA
:100078004128543083120313990004307806031D75
:10008800462847284B28313083120313990005303E
:100098007806031D5028512855283A308312031337
:1000A800990006307806031D5A285B285F282030FF
:1000B80083120313990007307806031D6428652806
:1000C8006928831203134108990008307806031D34
:1000D8006E286F2873282E30831203139900093075
:1000E8007806031D782879287D28831203133E0893
:1000F80099000A307806031D8228832887288312EE
:1001080003133B0899000B307806031D8C288D28B3
:10011800912876308312031399000C307806031D5A
:10012800962897289B282C308312031399000D30AA
:100138007806031DA028A128A528203083120313C0
:1001480099000E307806031DAA28AB28AF28503036
:100158008312031399000F307806031DB428B528BD
:10016800B9284F3083120313990010307806031D05
:10017800BE28BF28C32854308312031399001130B6
:100188007806031DC828C928CD28323083120313E6
:10019800990012307806031DD228D328D7283A3080
:1001A80083120313990013307806031DDC28DD2819
:1001B800E128831203134008990014307806031DC0
:1001C800E628E728EB282E30831203139900153010
:1001D8007806031DF028F128F528831203133D083B
:1001E800990016307806031DFA28FB28FF28831289
:1001F80003133A08990017307806031D04290529C6
:100208000929763083120313990018307806031DE4
:100218000E290F2914290D30831203139900F801B0
:100228000800333083120313A4000030A5004D08E2
:10023800AD00AE012D08A6002E08A7000A128A11EB
:1002480014230A128A11831203132408AF002F08FB
:10025800C9003330A4000030A5004D08AD00AE0140
:100268002D08A0002E08A1006430A2000030A300D1
:100278000A128A1132240A128A11831203132108DE
:10028800A7002008A6000A128A1114230A128A114C
:10029800831203132408AF002508B0004908B100F1
:1002A800B2013108A0003208A1009C30A200FF3042
:1002B800A3000A128A1132240A128A118312031324
:1002C80020082F07B50021080318210A3007B600B7
:1002D8000A30A4000030A5003608A7003508A6009B
:1002E8000A128A1114230A128A118312031324088A
:1002F800AD002D08C6003330A4000030A5004D081D
:10030800AD00AE012D08A0002E08A1006430A200A7
:100318000030A3000A128A1132240A128A118312A9
:1003280003132108A7002008A6000A128A11142323
:100338000A128A11831203132408AF002508B0009B
:100348009C30B1003108F40049080A128A119E2431
:100358000A128A1183120313B200F630B30033086D
:10036800F40046080A128A119E240A128A1183127E
:10037800031332072F07B4003408C30049080A12D0
:100388008A117D230A128A1183120313AD002D08E6
:10039800C00046080A128A117D230A128A118312A4
:1003A8000313AD002D08BD0043080A128A117D23EE
:1003B8000A128A1183120313AD002D08BA0008002F
:1003C800333083120313A4000030A5007908AD0070
:1003D800AE012D08A6002E08A7000A128A111423C0
:1003E8000A128A11831203132408AF002F08F6009B
:1003F8003330A4000030A5007908AD00AE012D0807
:10040800A0002E08A1000A30A2000030A3000A12A2
:100418008A1132240A128A11831203132108A700B1
:100428002008A6000A128A1114230A128A118312BC
:1004380003132408AF002508B000F630B1003108D6
:10044800F40076080A128A119E240A128A1183126D
:1004580003132F07B2003208C7003330A40000305E
:10046800A5007908AD00AE012D08A0002E08A10056
:100478006430A2000030A3000A128A1132240A1242
:100488008A11831203132108A7002008A6000A1264
:100498008A1114230A128A11831203132408AF0045
:1004A8002508B0009C30B1003108F40076080A1223
:1004B8008A119E240A128A1183120313B200F6309D
:1004C800B3003308F40047080A128A119E240A125E
:1004D8008A118312031332072F07B4003408C400AB
:1004E80076080A128A117D230A128A1183120313CD
:1004F800AD002D08C10047080A128A117D230A128F
:100508008A1183120313AD002D08BE0044080A1295
:100518008A117D230A128A1183120313AD002D0854
:10052800BB0008000A128A11BE230A128A1183121C
:1005380003130711033083120313B8009730B70071
:10054800B70BA42AB80BA42A00300A128A11E32494
:100558000A128A110A128A11CB240A128A118312EA
:100568000313B7003708F900033083120313B800E8
:100578009730B700B70BBE2AB80BBE2A83120313F5
:1005880007150711033083120313B8009730B7001B
:10059800B70BCC2AB80BCC2A00300A128A11E324F4
:1005A8000A128A110A128A11CB240A128A1183129A
:1005B8000313B7003708CD00033083120313B800C4
:1005C8009730B700B70BE62AB80BE62A8312031355
:1005D80007150D3077060319F22AF32A012B2B3061
:1005E80077060319F82AF92A012B2D307706031903
:1005F800FE2AFF2A012BCC01CB010A128A11FB2308
:100608000A128A110A128A11E4210A128A110A129C
:100618008A1115210A128A119B2A0A128A110C289A
:1006280083120313AA01A51F1A2B1B2B222BA40923
:10063800A509A40A0319A50AAA01AA0AA71F252B16
:10064800262B2F2BA609A709A60A0319A70A0130EA
:10065800A8002808AA06AB01AC0124082504031940
:10066800362B372B6E2BA901A90A452B0130031015
:10067800A40DA50DFF3E031D3B2B0130A800280843
:10068800A907A51F482B492B3A2B01300310AB0DA6
:10069800AC0DFF3E031D4A2B25082702031D562BD0
:1006A80024082602031C592B5A2B612B2408A60266
:1006B8002508031CA703A7022B1401300310A50C5F
:1006C800A40CFF3E031D622B0130A902031D6D2BF4
:1006D8006E2B492B2A080319722B732B782BAB0925
:1006E800AC09AB0A0319AC0A2C08A5002B08A40016
:1006F800080083120313A000952B3030BD2B313036
:10070800BD2B3230BD2B3330BD2B3430BD2B3530B3
:10071800BD2B3630BD2B3730BD2B3830BD2B393093
:10072800BD2B2008F400F5017508003A03199D2B2C
:10073800812B7408003A0319812B013A0319832B82
:10074800033A0319852B013A0319872B073A031932
:10075800892B013A03198B2B033A03198D2B013A84
:1007680003198F2B0F3A0319912B013A0319932B75
:10077800812B080083160317880189018316031348
:1007880085018601071107138717880189018312DC
:1007980003138501860104308700880189010B1144
:1007A8000B108B170B178B168B110C138316031357
:1007B8000F168F160F179F01D8308312031381006D
:1007C80057308316031381008C160C160A128A11EF
:1007D800B5240A128A1183120313A001A101A201F0
:1007E80020300A128A1180240A128A1108002B303C
:1007F8007706031D002C012C052C83120313CC0152
:10080800CC0A0D307706031D0A2C0B2C172C8312EB
:1008180003134C03031D112C122C172CCC0101308F
:10082800F400740888072D307706031D1C2C1D2C36
:10083800212C83120313CB01CB0A0D307706031D3D
:10084800262C272C312C831203134B03031D2D2C2C
:100858002E2C312CCB01013088020800F401F5015F
:1008680083120313201C392C3A2C402C2208F4073D
:100878000318F50A2308F50701300310A20DA30D8C
:10088800FF3E031D412C01300310A10CA00CFF3EBC
:10089800031D482C20082104031D532C542C342CF0
:1008A8007508A1007408A00008000B1D5C2C5D2CC5
:1008B800622C0B11D83083120313810083120313A7
:1008C8000C1E672C682C702C0A128A1120200A1220
:1008D8008A11831603130C1283128C1E742C752C28
:1008E800792C1A08F1007108F70073088A00720E53
:1008F8008300FE0E7E0E0900F40083160313871290
:10090800741D872C882C902C8312031322088316BD
:10091800031394008715982C8312031320082204CC
:100928008316031394008711740883120313210498
:100938009400080083120313A100A001211CA52C18
:10094800A62CAA2C7408F5007508A0070310F40D4E
:100958000310A10C2108031DB22CB32CA22C2008D3
:100968000800831603131812181518138316031793
:100978008711831603139A013330990083120313E6
:1009880098171813181683160313981608000A12D6
:100998008A11DC240A128A1183120313130808002F
:1009A80064008001840A0406031900340406D52C67
:1009B80083160313141CE12CE22CDC2C0800F40031
:0A09C8007408831203139300080063
:04400E00D420FF3F7C
:00000001FF
